S011000043505F4932435F4C61622E733337C5
S113000000000420C1010000ED010000ED0100002A
S1130010ED010000ED010000ED010000ED01000024
S1130020ED010000ED010000ED010000ED01000014
S1130030ED010000EC010000ED010000ED01000005
S1130040ED010000ED010000ED010000ED010000F4
S1130050ED010000ED010000ED010000ED010000E4
S1130060ED010000ED010000ED010000ED010000D4
S1130070ED010000ED010000ED010000ED010000C4
S1130080ED0100005D2B0000ED010000ED0100001A
S1130090ED010000ED010000052F0000ED0100005E
S11300A0ED010000ED010000ED010000312D000024
S11300B0ED010000ED010000ED010000ED01000084
S11300C0ED010000ED010000ED010000ED01000074
S11300D0ED010000ED010000ED010000ED01000064
S11300E0ED010000ED010000992B0000ED0100007E
S11300F0ED010000ED010000ED010000ED01000044
S1130100ED010000ED010000ED01000010B5054C0B
S1130110237833B9044B13B10448AFF300800123AF
S1130120237010BD000200200000000040630000A6
S113013008B5034B1BB103490348AFF3008008BD66
S1130140000000000402002040630000154B002B57
S113015008BF134B9D46A3F5803A00218B460F46FA
S11301601348144A121A03F022FD0F4B002B00D03F
S113017098470E4B002B00D0984700200021040024
S11301800D000D48002802D00C48AFF3008003F0A6
S1130190DFFC2000290002F0F1FF03F0C5FC00BFE2
S11301A0000008000000042000000000000000001F
S11301B000020020D0020020000000000000000027
S11301C0064880470649074A074B9A42BEBF51F882
S11301D0040B42F8040BF8E7FFF7B8FF81020000B4
S11301E04C6300000000002000020020FEE700BF76
S11301F000487047005A6202114BD3F8943003F060
S11302000703023B032B18D8DFE803F00D02141098
S11302104FF400400A4BD3F80031C3F304230133F5
S1130220B0FBF3F07047074B1868F3E7064B186808
S11302304008EFE7054B1868ECE7034B1868E9E75B
S113024000400E4004000020080000200C000020A4
S113025008B5FFF7D1FF054B054AD3F80831C3F3BE
S113026008230133B0FBF3F0106008BD00400E40DA
S113027000000020014B1868704700BF04000020F4
S1130280044B054A9A60D3F8882042F47002C3F8FC
S11302908820704700ED00E0000000004FF40040AB
S11302A0704700BF4FF47A70704700BF014B186865
S11302B0704700BF0C000020FEE700BF224B9842AD
S11302C03AD01AD9214B98423AD00CD8204B9842B4
S11302D025D003F5371303F5D86398422AD11D4B73
S11302E0D3F8A00070471C4B984214D01B4B984283
S11302F020D1184BD3F8B0007047194B984215D051
S113030011D9184B984211D0174B984212D1114B66
S1130310D3F88C0070470F4BD3F8AC0070470D4BEB
S1130320D3F89C007047114B984203D1094BD3F882
S11303308000704700207047064BD3F89800704740
S1130340044BD3F8A8007047405DC60080BA8C0106
S11303500024F400B081E00F0048E80180D5430296
S113036080841E0000093D00C0CF6A0040420F0097
S113037010B5C9B20024134B134A5B688C42234660
S113038008D00133052B02F1080213D012F8084CEF
S11303908C42F6D152F80C4C8442F2D30B4A02EB55
S11303A0C3035B791A0607494B6823F04073134370
S11303B04B6010BD40F653610548FFF77DFF4FF0D9
S11303C04072F0E700000E40E05E0000D45E0000E2
S11303D0C05E000038B5074C41F67133256C2364C8
S11303E0FFF706FF0021FFF7C3FF0DB100232364CD
S11303F038BD00BF00000E4038B5054C41F67133DE
S1130400256C2364FFF7B4FF0DB10023236438BDCA
S113041000000E4030B4C0F30323013B092B43D842
S1130420DFE803F00D1542422F3D1D423705214CF4
S1130430C0F304302044800030BC016070471E4C7F
S1130440C0F304302044800030BC016070471B4C72
S1130450C0F304302044800030BC01607047184C65
S1130460C0F304301025174BD3F84421D207E1D44C
S1130470D3F840212A42FBD12044800030BC0160E3
S11304807047114CC0F304302044800030BC01603C
S11304907047C0F304300D4C4FF48035E3E7C0F3EC
S11304A004300B4C0125DEE741F2F231094830BC3F
S11304B0FFF702BF800AF2100000F2100006F210EB
S11304C04007F21000400E408005F2108007F21041
S11304D00007F210C05E000008B5C0F30313013B2F
S11304E0092B53D8DFE803F00E20261452521A3099
S11304F03F053D4B984270D13C4BD3F8300100F09E
S1130500030008BD394BD3F80001C0F3042008BD33
S1130510364BD3F80C01C0F3082008BD334BD3F895
S11305200801C0F3082008BD304BD3F81401C0F310
S1130530042008BD2D4BD3F80001C0F30060431C18
S113054001209840013808BD294B98423CD0294BE2
S1130550984229D1254BD3F820310120C3F301134C
S11305609840013808BD244B984224D003F5B013B9
S113057003F58053984210D11C4BD3F82801C0F3E3
S11305800120031D01209840013808BD41F2EE51BD
S11305901A48FFF791FE002008BD41F2BA511748EE
S11305A0FFF78AFE002008BD41F296511348FFF779
S11305B083FE002008BD0D4BD3F828310120C3F37E
S11305C001139840013808BD084BD3F820310120AD
S11305D003F00F039840013808BD41F2C9510748A0
S11305E0FFF76AFE002008BDA009140000400E4079
S11305F08006160080162E0090171A00C05E0000B8
S113060008B500F00F00013807284AD8DFE800F0E9
S1130610121F2D49394149042F4BD3F85C3103F0A3
S11306203003202B4AD0302B52D0102B0CBF072084
S1130630012008BD284BD3F8943003F00703023B94
S1130640052B43D8DFE803F03A383640423E224BCC
S1130650D3F8800000F007000228EAD0042827D04D
S113066001280CBF0320012008BD1B4BD3F88430A4
S113067003F00703013B032B2CD8DFE803F01D1B19
S11306802119154BD3F8880000F007000228E5D1A2
S113069008BD114B1B6F13F0010F14BF0920072075
S11306A008BD41F642110D48FFF706FE002008BDC3
S11306B00A2008BD022008BD032008BD042008BD8F
S11306C0062008BD0C2008BD0B2008BD052008BD70
S11306D0082008BD012008BD00400E40C05E000097
S11306E038B52E4B984205460AD02D4B984207D078
S11306F02C4B984204D040F653712B48FFF7DCFD95
S11307002846FFF77DFF254B9D42044625D0244B08
S11307109D421CD0234B9D4213D040F68271224847
S1130720FFF7CAFD042C04D8DFE804F009332F21B5
S11307301D0040F6D4711C48FFF7BEFD002420467E
S113074038BD1A4BD3F8804004F00704EAE7174B8E
S1130750D3F8884004F00704E4E7144BD3F884404A
S113076004F00704DEE7BDE83840FFF79BBDFFF760
S113077043FD0E4BD3F80041C4F30064631C012411
S11307809C40B0FBF4F4204638BDBDE83840FFF788
S11307908DBDBDE83840FFF781BD00BF03002000D8
S11307A00500240002001E00C05E000000400E4050
S11307B038B500F47813B3F5B01F00F097801AD958
S11307C0B3F5101F00F09F804CD9B3F5401F2AD019
S11307D07FD9B3F5481F00F09B80B3F5781F4AD149
S11307E00546FFF709FD04462846FFF775FE01306C
S11307F0B4FBF0F038BDB3F5202F58D04FD9B3F582
S1130800602F1ED057D9B3F5801F28D0B3F5A01F91
S113081031D16848FFF764FF674BD3F8303103F0F8
S11308200303D84038BD6548FFF75AFF624BD3F83D
S11308302831C3F301231A1D01239340B0FBF3F0C5
S113084038BD5F48FFF7DCFE072808D009282ED002
S113085040F615515B48FFF72FFD002038BD5A4B79
S1130860186838BDB3F5F01F71D0B3F5001F69D017
S1130870B3F5D01F06D041F222515248FFF71CFDB8
S1130880002038BD4D48FFF72BFF4B4BD3F82821F0
S11308900123C2F301129340B0FBF3F038BDB3F56A
S11308A0003F64D0B3F5802F56D0002BE3D1BDE8D0
S11308B03840FFF7A1BCB3F5402FDCD1FFF79CFC17
S11308C03D4BD3F81431C3F304230133B0FBF3F0ED
S11308D038BDB3F5381FCED13C48FFF701FF364B86
S11308E0D3F82031C3F30113D84038BD3748FFF79C
S11308F0F7FE314BD3F82021012302F00F0293407D
S1130900B0FBF3F038BD2B48BDE83840FFF7E8BE34
S11309102F48FFF775FE0138072843D801A353F881
S113092020F000BF85090000A5090000A50900000A
S11309309D090000A5090000A50900005F0800004A
S1130940890900001D48BDE83840FFF7C9BE1F48AB
S1130950BDE83840FFF7C4BEFFF74EFC164BD3F892
S11309600C31C3F308230133B0FBF3F038BDFFF7B8
S113097043FC114BD3F80831C3F308230133B0FB14
S1130980F3F038BD002038BDFFF736FC0A4BD3F82E
S11309900031C3F3042303FB000038BDBDE8384035
S11309A0FFF768BC40F64C510648FFF785FC002071
S11309B038BD00BF0500240000400E4003002000A5
S11309C006000E00C05E00001000002002001E00A1
S11309D0B80032002DE9F8430546FFF76FFC431ECB
S11309E00333064671D8DFF8CC811120D8F80070A3
S11309F0C8F80050FFF704FE052800F08180614B21
S1130A001C68002CFCD1721C74D05F4B9D426CD0CE
S1130A105E4B9D425FD05E4B9D4220D01120FFF77C
S1130A20EFFD052824D15B4B9D425BD95A49012037
S1130A308D428CBF4FF000714FF08071574B584A74
S1130A401860D2F8003123F080730B43BD42C2F822
S1130A5000310FD90121284600F0A4FE0AE026F057
S1130A60C06646F080661120FFF7CAFD052839D01C
S1130A70BD42EFD84A4B11201E61FFF7C1FD052886
S1130A8041D0FFF7B9FB434B98421CD9424B012498
S1130A9098428CBF4FF000734FF080733F49404A37
S1130AA00C60D2F8000120F080701843BD42C2F8F7
S1130AB0000103D80121002000F074FE1120BDE8DC
S1130AC0F843FFF79DBD0023E8E741F6D3513548CD
S1130AD0FFF7F2FB87E71120FFF792FD052826F0C8
S1130AE0C066C5D100200146A8E726F0C06646F0DE
S1130AF00076B8E741F6E4512A48FFF7DDFB84E7C6
S1130B00FFF768FC7BE7FFF7A3FB8542064632D379
S1130B10D8F80030B34226D39D4219D1224B1B682A
S1130B205B061BD5214BDFF890805968D8F84090BC
S1130B3041F671333046C1F30141C8F84030FFF744
S1130B4017FCB9F1000F9CD00023C8F8403098E797
S1130B5041F612611348FFF7AFFBDFE7144A13684D
S1130B60002BFCD1DEE741F611610E48FFF7A4FB30
S1130B70D8F80030D0E741F610610A48FFF79CFB33
S1130B80C6E700BF6028C84380841E0000093D00FA
S1130B9040420F000048E8010090D0034000C843E1
S1130BA000400E40C05E00003C300E4000300E405D
S1130BB0C800C6430800002000000E4010B50138EC
S1130BC00C4603284ED8DFE800F0203211027F29BA
S1130BD061D8344A04F07F041368002BFCD1324AF4
S1130BE0936923F07F031C43946110BD7F294CD883
S1130BF02E4A04F07F041368002BFCD12A4A13699F
S1130C0023F07F031C43146110BDB1F5007F36D27D
S1130C10274AC4F308041368002BFCD1224A136A40
S1130C2023F4FF7323F001032343136210BD1E4B0F
S1130C30D3F890305B071CD41B491E4B4A6A22F040
S1130C40300242F010024A62086BC4F3C31203324A
S1130C5003400F2A44EA030428BF0F2244EA027423
S1130C600C6310BD42F24A111348BDE81040FFF76F
S1130C7023BB42F230111048FFF71EFBDCE742F2BF
S1130C80F9010D48FFF718FBC2E742F206110A48C2
S1130C90FFF712FBACE742F221110748FFF70CFB08
S1130CA097E700BF6428C84300400E406028C8434B
S1130CB06828C84300F8FF0FC05E000010B5022882
S1130CC00C4604D042F262111348FFF7F5FA134BB5
S1130CD05B6A13F0300F0BD0202C19D0302C07D0C6
S1130CE034B142F27D110C48FFF7E6FA0C4A01E0F8
S1130CF04FF440020949D1F8903032EA0303FAD1A3
S1130D0053024ABFD1F8A0000120C0F3802010BDD7
S1130D104FF40002EEE700BFC05E000000400E404A
S1130D20FF33E107F0B583B004460E4604287FD8AC
S1130D30DFE800F003595F7953004FF400754FF476
S1130D40807708234FF0090C96B9012098404A494E
S1130D500D66D1F890300342FBD13AB101224649E5
S1130D6002FA0CF2D1F890301342FBD103B0F0BD7B
S1130D7042491944890000263F4B1F660B68002B2B
S1130D80FCD0002AF2D03D4D6544AD002B68002B09
S1130D90FCD0022CEAD1002EE8D0374A516A11F077
S1130DA0010165D04FF480632021C2F8A8302046A9
S1130DB05166FFF783FF304CD4F89C600122002178
S1130DC00220FFF7AFFFC6F30A010220FFF7F6FE89
S1130DD027662B68002BFCD0C8E7202510270423A6
S1130DE04FF0050CB0E78025402706234FF0070C91
S1130DF0AAE7002937D0204B5B6A13F0300F1FD1CC
S1130E001F4BDB6B580526D51B4B596AC9071DD5EB
S1130E10586A1C4920F0300040F010005862042742
S1130E204FF0030CA8E70127BC46022500238BE7FB
S1130E30154842F2470103B0BDE8F040FFF73CBA61
S1130E40104904274FF0030C002695E70D490427A9
S1130E504FF0030C90E742F256010B480192FFF762
S1130E602BFA019AD0E7042008254FF0030C6EE713
S1130E702046FFF723FF9EE700400E408004F21057
S1130E8000300E400812C843C05E0000F8B51128B7
S1130E900C460AD000F00F000138072863D8DFE8B9
S1130EA000F0093F43621B286231042900F092805C
S1130EB005293BD00025023C0A2C00F22A81DFE8F8
S1130EC014F0FB00FE000801150128012801280187
S1130ED028010101B400F90006299A4D57D0013CBC
S1130EE0092C47D8DFE804F03D362F4646584646DD
S1130EF0462C072900F01781092972D1924B01224F
S1130F001A67F8BD4C1E072C00F2FC80DFE814F0D1
S1130F108B00FA00FA008400FA00FA007D007300E6
S1130F2006292ED0894DDAE7894DD8E7894A8A4BBC
S1130F3015689D42BED90021284600F033FCBAE76B
S1130F4004232B60F8BD012211461046FFF7EAFE88
S1130F500123F6E7012211460020FFF7E3FE0223F6
S1130F60EFE70023EDE741F641417C48BDE8F84056
S1130F70FFF7A2B941F682217848BDE8F840FFF7AF
S1130F809BB941F647217548704DFFF795F97348B1
S1130F9041F65721FFF790F9FFF72EF9704B98426D
S1130FA026D9704B012498428CBF4FF000734FF048
S1130FB080736D49644A0C60D2F8000101F5AE51AA
S1130FC0083120F0807018430124C2F80001032383
S1130FD00C60B6E7FFF74EF9054600283FF46AAF08
S1130FE0A9E741F60C315D48BDE8F840FFF764B964
S1130FF000231C46DDE73021534AD2F85C3123F04C
S113100030030B43C2F85C31F8BD012211460420C1
S1131010FFF788FE1021EFE7012211460220FFF7B7
S113102081FE2021E8E70021E6E7032005240122D0
S11310301146FFF777FEFFF7CDF91DB14B4B1B6847
S11310405A0679D5404B5C67FFF702F90646FFF76D
S1131050D3F8434B984263D9424B012498428CBF46
S11310604FF000734FF080733F49374A0C60D2F859
S113107000013E4920F080701843C2F800010B685B
S11310805B0654D53A4B3B4C5968276C41F6713397
S11310903046C1F301412364FFF76AF90FB100231D
S11310A02364002D7FF42DAF28460121BDE8F840CC
S11310B000F078BB0724BEE700200424B7E7012032
S11310C00324B4E741F603212448BDE8F840FFF7C0
S11310D0F3B8254B1C4A01211960D2F800310220D3
S11310E043F08073C2F800310446A0E71E4B164A51
S11310F001241C60D2F8003143F08073C2F800313F
S1131100032094E741F66A311448BDE8F840FFF73C
S1131110D3B841F608211148BDE8F840FFF7CCB830
S113112000231C46A0E7084B00221A67F8BD124AA8
S11311301368002BFCD1A5E70F4A1368002BFCD1E0
S113114080E700BF88400E4000400E4080400E40C3
S113115084400E4008000020002D3101C05E0000D4
S11311600048E8010090D0034000C8433C300E40E2
S113117000300E4000000E40C800C64338B5044697
S11311801120FFF73DFA04284DD00122002102204E
S1131190FFF7C8FD637813B9A378002B36D041F666
S11311A02F712448FFF788F8217C012934D0224A82
S11311B02248536A257823F00103022908BF43F02B
S11311C0010353620560A388617AE58841EAC3217B
S11311D0D162136B207AA17A03F07F630B43C11CA5
S11311E043EAC5230F2943EAC01328BF0F2143EA6A
S11311F001731363A37B657BE07B217B1B0143EAC3
S11312000533034343EA0143536338BDE378002BBA
S1131210C5D1217C0129CAD141F634710548FFF7B3
S11312204BF8217CC3E741F6F1610248FFF744F82B
S1131230ABE700BFC05E000000400E40A004C843FE
S1131240EFF3108072B6704700B962B6704700BF02
S113125038B542EA032340F20112934205460C4694
S113126060D0B3F5817F14D340F20122934250D071
S113127030D9B3F5407F24D040F2013293423ED1BD
S11312802D4BD3F878311A0EC3F307432B60226039
S113129038BD012B2AD00BD3B3F5807F2FD1264B39
S11312A0D3F86C311A0EC3F307432B60226038BDA8
S11312B0214BD3F86C31C3F30722DBB22B602260DD
S11312C038BD1D4BD3F870311A0EC3F307432B609E
S11312D0226038BDB3F5007F11D1174BD3F87031BC
S11312E0C3F30722DBB22B60226038BD124BD3F864
S11312F07431C3F30722DBB22B60226038BD40F6A1
S113130004110E48FEF7D8FF002213462B6022601A
S113131038BD094BD3F87831C3F30722DBB22B6015
S1131320226038BD044BD3F874311A0EC3F307435B
S11313302B60226038BD00BFB081E00FFC5E00006E
S1131340044B1B69C3F30443082B02D1024B034A29
S11313501A60704700400E4008000020C0EA2101D6
S113136010B51C4B02280C46D3F8803120D003283A
S11313701CD0012814BFDBB2C3F307231B0323F4DF
S1131380704244B9BAB91449CA6E22F47042134384
S1131390CB66012010BDAAB90F49D1F8EC2022F484
S11313A070421343C1F8EC30012010BD1B0EE5E779
S11313B0C3F30743E2E740F693010848FEF77CFFD6
S11313C0204610BD40F69F010448FEF775FF00203B
S11313D010BD00BFB081E00F00300E40FC5E000085
S11313E00E4B1A6852060FD41B685B0611D50C4BC2
S11313F019685A68C1F30121C2F3014291421A6883
S113140003D822F010021A60704742F010021A60EA
S11314107047044A1368002BFCD1E8E73C300E40C7
S113142000300E40C800C64308B50F4A0F4BD2F82F
S113143090201A601120FFF7E3F80D4B0D4A1B684A
S113144010705B060AD50C4B0C485B6806490C4AC5
S1131450C3F3014303700B69136008BD094A1368A1
S1131460002BFCD1EFE700BF00400E401C0200201F
S11314703C300E402602002000300E402D02002099
S113148028020020C800C64370B52E4B1B685B06BB
S113149007D42D4B2D491A781023C2F10202934030
S11314A00B612B4B2B4DD3F88041264945F60E0298
S11314B0C3F88021286840F2551202401A660B686E
S11314C05E0604F0010426D5204B1B68D80617D508
S11314D01F4AD2F84031D901FBD41F4E1F4B31783B
S11314E01B68136105291BD01120FFF7CFFC2B6863
S11314F0DB070CD51CB1164B0022C3F8802170BD4C
S1131500154E31780529EFD12B68DB07F2D4104B47
S113151002221A66EEE7124A1368002BFCD1D3E7C5
S1131520084B104A1B6810685A0606D5074B5968C1
S1131530C1F30141FEF760FFE3E7094A1368002B9A
S1131540FCD1F3E73C300E402D02002000300E4069
S113155000400E401C020020260200202802002029
S1131560C800C64308000020704700BF704700BF92
S113157010B5044678BBFFF733FF184A136943F0EC
S113158004031361FFF7F0FF154B1B68DA061BD445
S113159030BFFFF7EBFF7CB9114B1B68DB0608D4A7
S11315A0104A136823F000431360BDE81040FEF7AF
S11315B04FBEFFF7C5FEF3E7FFF766FF094A13685E
S11315C023F00043136010BDFFF73AFE04F074FCEF
S11315D0FFF73AFEDDE7FFF727FFCCE700ED00E079
S11315E000300E404C310E4010B5044600283ED168
S11315F0FFF7F6FE1F4BD3F880214FF4207145F618
S11316000E00C3F880011966D10744BF0022C3F855
S11316108021194A136943F004031361FFF7A4FFFF
S1131620164B1B68DA061BD430BFFFF79FFF7CB94B
S1131630124B1B68DB0608D4114A136823F00043DD
S11316401360BDE81040FEF703BEFFF779FEF3E731
S1131650FFF71AFF0A4A136823F00043136010BD12
S1131660FFF7EEFD04F028FCFFF7EEFDDDE7FFF7E2
S1131670DBFEBDE700400E4000ED00E000300E4010
S11316804C310E402DE9F843294B1A68550632D4E3
S11316901B685C0631D5274E7368C3F30143984237
S11316A029D0254B0446D3F800810D46FEF7A4FD4E
S11316B0C4F102071023022C814603FA07F70CD069
S11316C037611DB11A4B1B685A0625D59CB92146B2
S11316D04846BDE8F843FEF78FBEC8F30428174B0D
S11316E008FB000898451CD802214846FEF784FEF2
S11316F0104B1F6165B9BDE8F883114A1368002BCC
S1131700FCD10C4E7368C3F301439842C9D1F2E78C
S1131710074B1B685B06EED4094A1368002BFCD107
S1131720D4E740F2E1510748FEF7C6FDDCE700BF0D
S11317303C300E4000300E4000400E40002D310180
S1131740C800C643FC5E000040B1134B1B7813B1C4
S1131750124B98421BD90020FFF794BF10B582B0FA
S11317600F4B0191D3F80041FEF746FD0A4B019956
S11317701B78C4F3042404FB000013B1074B984204
S113178008D9002002B0BDE81040FFF77BBF02205B
S1131790FFF778BF0220F5E72C020020002D31016D
S11317A000400E40034B1B685B0601D4FFF7CCBF1F
S11317B0704700BF3C300E40094942780B6823F45F
S11317C0407343EA0223022A0B6000D07047054BA2
S11317D05B6A9B00FAD540F21D610348FEF76CBDBD
S11317E000300E4000400E40FC5E000010B4244A5D
S11317F04AF6E853546B5363936FDB07FCD4136CC2
S113180013F0030322D01F4A0121834211601AD02E
S1131810032B02D1431E012B1FD9194A936FDB07F7
S1131820FCD4136C164923F00303034313648B6F36
S113183013F00103FBD10030124A18BF0120012C20
S1131840106000D14B635DF8044B70470028E1D170
S11318500C4B5DF8044B18607047094A4FF40023A1
S1131860D362936FD907FCD4136C054923F00303A7
S113187043F0010313644B6A1A03FCD5CDE700BFA0
S113188000300E40B40AC6432DE9F04F89B0044637
S1131890A0F5E1600025B0F5966F0191CDE9025500
S11318A0CDE90455CDE9065500F284805D4BB4F5CD
S11318B0E16F9346D3F868318CBF4FF001084FF0C5
S11318C0000863D1C3F30722DBB2079204934FF4F9
S11318D016794FF4966A544FFD6CC5F3017505A94A
S11318E002A82B464246FFF7B3FCD7F8EC60C6F3D8
S11318F001264246334606A903A8FFF7A9FC049A29
S11319000798A4EB0A01831A01FB03F3B3FBF9F371
S1131910D3182CBF01220022984241D3002A3FD180
S11319200698DDF80C80A0EB080201FB02F2B2FB82
S1131930F9F218EB02082CBF0122002240452FD3F4
S113194072BB059A0298A2EB000C01FB0CF1B1FBEF
S1131950F9F910EB09092CBF012100214A451FD3D5
S1131960F1B9BBF1000F0DD0FA6D22F4FE4222F062
S1131970020242EA0323B4F5E16F2B4A18BF43F095
S11319800203D365019BF3B901250FE01A0EC3F3DB
S11319900743079204934FF496694FF4E16A9AE778
S11319A040F68D212148FEF787FC0025284609B022
S11319B0BDE8F08F40F63F211C48FEF77DFC284629
S11319C009B0BDE8F08F28460021FFF7C9FC0546A1
S11319D0E0B130460121FFF7C3FC0546E0B1124AED
S11319E0536EC14538BFC14623F4FF73B9F1E70F05
S11319F023F0010328BF4FF0E709B4F5E16F18BFE6
S1131A0043F0010343EA49035366CFE740F69C21C0
S1131A100648FEF751FCC9E740F6A4210348FEF747
S1131A204BFCC3E7B081E00F00300E40FC5E0000C9
S1131A3038B53B4B1A6FD96CCC0702F007020BD5B3
S1131A40012A55D9132850D9143813288CBF4FF4C0
S1131A507F414FF4EE410CE0D96CCD073FD4012A0D
S1131A6053D9DB6C2F4840F6E221FEF725FC6FF0DA
S1131A70FF012B482C4AC36C2C4C23F47F430B43AB
S1131A80C364C16C1388C26CC1F3032101312833D0
S1131A9001EB810503EB5303B3FBF5F3013B072B88
S1131AA022F0EE6228BF072342F4801242EA036365
S1131AB0B4F90020C364002A10DB036D4C082832FB
S1131AC004EB410102EB520223F07004B2FBF1F388
S1131AD0072B28BF072344EA0313036538BDDB6CD7
S1131AE0DC07BFD5012ABDD808E04FF44C51C0E74C
S1131AF0DA6CD20709D5DB6CDB07B3D527288CBF9A
S1131B004FF47F414FF4EE41B3E70928EDD90A3889
S1131B1009288CBF4FF47F414FF4EE41A9E700BF81
S1131B2000300E40FC5E000022020020240200204F
S1131B3010B50B4B1B68044633B9012804D940F691
S1131B4001310848FEF7B8FB074B084A186F20F02C
S1131B50070020431867BDE810401088FFF768BFEE
S1131B608009C643FC5E000000300E4020020020C5
S1131B7070B56B4B02229A639B6B03F00F03934285
S1131B8022D10389C82B044600F28780A2889A4296
S1131B9000F28D80B4F90C30C82B00F39280637886
S1131BA0012B6DD0022B00F0B180E38842F2107259
S1131BB0934200F2A4804A2B0ED9B3F5FA7F80F049
S1131BC08A804FF0805008E040F6A6115548002561
S1131BD0FEF772FB284670BD00205149B4F90C6031
S1131BE0CB6C514D514A23F0405323F00103002E96
S1131BF0A8BF43F001030343CB64D1F8EC30A088C1
S1131C0043F44073C1F8EC30CB6E288043F080730A
S1131C10CB66106800282FD1FFF78AFF444B454953
S1131C202589B4F90C20A0881A800D80FFF700FFE5
S1131C30A37B002B5FD0012B2BD040F64401394805
S1131C40FEF73AFB012211466088FFF71DFE0546A8
S1131C50002849D0324A6078D36B43F48063D3635D
S1131C60FFF7C4FDA37A344AA3F12003B3FA83F344
S1131C705B091360284670BD0420FFF759FFCDE7C8
S1131C80A388C82B91D940F6B6112648FEF714FB59
S1131C908BE7234B294A9A65D4E74FF41B6121480B
S1131CA0FEF70AFB2389A2889A427FF673AF40F6B7
S1131CB0B1111C48FEF700FBB4F90C30C82B7FF7B8
S1131CC06EAF40F6B2111748FEF7F6FA6378012BAF
S1131CD07FF468AFD4E740F6C31083428CBF4FF063
S1131CE040504FF0005078E740F6FA110D48FEF7E7
S1131CF0E3FA284670BD0A4B114A9A65A2E740F6FA
S1131D00C3110848FEF7D8FAE38854E7A3880A2BDE
S1131D107FF64BAF40F6BB110248FEF7CDFA44E71D
S1131D2000300E40FC5E0000200200208009C64303
S1131D3024020020220200209407C643372110B752
S1131D407740205738B5032804460D461BD904288C
S1131D5005D0052817D0A0F10803022B13D982213E
S1131D600B48FEF7A9FA04EB4400000100F180409F
S1131D7000F5204000F1806300F1C0604FF00112D3
S1131D801A60056038BD35F00113E8D1EBE700BFF8
S1131D90105F00002DE9F0410D46174698460446B1
S1131DA0E8B1012800F0B480022800F0F480032890
S1131DB000F0EE80042800F0A580052800F02181C1
S1131DC0831F012B40F29E80082800F029810928F6
S1131DD000F031810A2840F09580072301E040F2A9
S1131DE0FF332B41DE0740F18D80002F3CD166008C
S1131DF0072D25D833191B0103F1804303F5204334
S1131E00A9005A680F20884022EA000207FA01F16B
S1131E100A435A6097B9B8F1000F57D1002C7AD110
S1131E2040F2FF332B41DB0740F1B8808D4B344443
S1131E3024012344012202FA05F51D60BDE8F08166
S1131E403119090101F1804101F5204105F180407A
S1131E5008388B6880000F22824023EA020307FAC5
S1131E6000F018438860D5E7B8F1000F10D0002CBB
S1131E7068D140F2FF332B41D80740F195806600CA
S1131E80794B3219120113440122AA401A60AFE7B8
S1131E90002C6CD0012C00F0AB80022C00F0B4803C
S1131EA0032C00F09680042C00F08480052C00F0B4
S1131EB0B980A31F012B7DD9082C00F0C380092C05
S1131EC000F0C7800A2C75D1072352E0002C57D0AC
S1131ED0012C00F09080022C00F09C80032C7ED01A
S1131EE0042C6DD0052C00F0A380A31F012B67D90F
S1131EF0082C00F0A580092C00F0AE800A2C5FD1DC
S1131F0007233FE040F21B115848FEF7D5F96CE770
S1131F104FF6C07365E7012C64D0022C6ED0032CFD
S1131F2054D0042C3AD0052C77D0A31F012B35D9DB
S1131F30082C00F08380092C00F088800A2C2DD115
S1131F4007236FE7012C50D0022C60D0032C43D020
S1131F50042C29D0052C68D0A31F012B24D9082CCC
S1131F6072D0092C7BD00A2C1ED1072383E740F2C0
S1131F70FF332B41D9071DD566003219394B81E750
S1131F8040F2FF332B41DA071AD53444364B4FE77E
S1131F904FF47F4325E740F6FF7322E74FF4777150
S1131FA03348FEF789F941E740F20B413048FEF728
S1131FB083F964E74FF477712D48FEF77DF9DBE789
S1131FC040F20B412A48FEF777F9DEE74FF47F43EE
S1131FD028E74FF47F43CCE74FF47F434BE74FF4BC
S1131FE07F43CFE74FF6C0731CE74FF6C07342E759
S1131FF04FF6C073BDE74FF6C073C3E740F6FF73F7
S113200010E74FF6FF73ECE640F6FF73B1E740F6D6
S1132010FF7330E740F6FF73B4E74FF6FF7301E751
S11320200F23DEE64FF6FF73A3E74FF6FF7322E7B5
S11320304FF6FF73A6E74FF44043D2E60F23F1E6D1
S11320400F239FE70F2394E70F2314E74FF4404334
S1132050E8E64FF440438CE74FF4404392E74FF4F3
S1132060404308E70CA000440CA00046105F0000A9
S1132070245F0000002A54D0F8B50F4601680546D5
S113208003F0030621F4407100F1C063144600F12B
S11320908062296030024FF440711160186057B9B2
S11320A02F4B9D4256D02F4B9D4243D04FF49771F6
S11320B02D48FEF701F92B689A071ED5032E35D15A
S11320C040F263112848FEF7F7F8284B9B5D04FBA8
S11320D003F3FBB16FEAC4041C443C44B4FBF3F4C3
S11320E0013C2CD4B4F5007F2ED22B689B0702D57B
S11320F0002C08BF01242C61F8BD032EE0D01C4B3A
S113210053F826309F42DBD9184B9B5D04FB03F345
S1132110002BDFD14FF4BA711348BDE8F840FEF745
S1132120CBB84FF48A711048FEF7C6B8114B53F878
S11321302630E7E71048FEF73BFB0746BBE74FF4C2
S1132140BD710948FEF7B8F840F27B110648FEF766
S1132150B3F8CAE70948FEF72BFB0746ABE700BF15
S113216000C0004000C40040A05F0000B45F000055
S1132170945F0000885F0000009204000082040065
S113218038B5094B984204460D4608D003F58063E0
S1132190984204D04FF4CA710448FEF78DF804F154
S11321A004746401256038BD00C00040A05F0000D5
S11321B070B5124B984204460D4608D003F580636F
S11321C0984204D040F2A9110D48FEF775F86978D9
S11321D00C482B7B620102F18442002681F001014C
S11321E02664E0635160D5E901122046FFF742FFFF
S11321F029782046BDE87040FFF7C2BF00C0004008
S1132200A05F0000FFFF070038B50A4B9842044660
S11322100D4604D04FF489710748FEF74DF8636BFF
S11322209B07FCD415B90223636038BD01236360A6
S113223038BD00BF00600440B85F000070B5234B98
S1132240984205460C4604D040F26F112048FEF730
S113225033F8217811B9AB68DE0728D46278A07806
S1132260E368002A14BF4FF48052002228BB4BBB02
S1132270E3780BB142F4807223790BB142F040024F
S113228063790BB142F08002E379A679207A1B01CD
S113229043EA8603034313432B6039B1AB68DA077F
S11322A004D46B6B9B07FCD401236B6070BD6B6B18
S11322B09807FCD402236B60D0E742F40072002B31
S11322C0D6D001E042F400722B61D1E700600440F3
S11322D0B85F000070B505460C4616462AB36CB9C3
S11322E0184B9D4206D040F22B111748BDE87040B0
S11322F0FDF7E2BF1548FEF75BFA04466401144B90
S1132300B4FBF6F4203CE4009C4214D82B6C104A35
S1132310D90702EA040201D5EA6070BD6B6C5B0761
S1132320FAD56B6C5B07F9D4F6E740F20311064863
S1132330FDF7C2FFD3E74FF49C710348FDF7BCFFE0
S1132340E4E700BF00A00440D05F000090171A002B
S1132350F8FF010038B50C4B984204460D4604D0F2
S11323604FF4AE710948FDF7A7FFE943236C490018
S113237001F00A01DA0741EA050102D4636C9B0704
S1132380FCD4616038BD00BF00A00440D05F0000F1
S113239070B5154B984204460E4604D040F2BD1168
S11323A01248FDF789FF236CDA0702D4636C9B079C
S11323B0FCD40A236360656C002DFCD101232364E3
S11323C0707B337BB17B2268034322F01C020B43F6
S11323D013432360D6E901122046FFF77BFF3378CD
S11323E06360256470BD00BF00A00440D05F00009E
S11323F070B588B00C4D0D4801234FF4706200266F
S11324000F2401A98DF804308DF805308DF81030B3
S11324108DF81C308DF81D30CDE90265CDE90542FB
S113242000F0EAFA08B070BDDDFB050000C0004012
S113243000B585B00022F323CDE901200093044ABE
S113244004480223402100F057FB05B05DF804FB6B
S11324503002002000C0004008B51B4B186807EE8E
S1132460900AF8EE677A17EE900A01F0A3F810A329
S1132470D3E9002301F0F6F80022144B01F0F2F83E
S11324800DA3D3E9002300F035FF01F0FDFA01F0BC
S113249091F80BA3D3E9002301F0E4F800220C4BDC
S11324A000F02AFF01F0F0FA08BD00BFAFF300808E
S11324B0D7A3703D0AF76540CDCCCCCCCC6C47405B
S11324C0CDCCCCCCCCCCFC3F300200200000F03E84
S11324D00000404030B58DB0114D0591002101241C
S11324E0049001922846022202938DF800100423DE
S11324F08DF80C108DF80D108DF818108DF8201033
S1132500694609920B938DF8014007948DF8284091
S113251000F06EFB2146284600F060FC0DB030BD93
S11325200060044008B500F0EFF800F013F900F083
S1132530ADFD00F089FDFFF75BFF032000F0B0FD67
S11325400021202000F0ACF84FF4E0530448054982
S11325501C22FFF7BFFF1020BDE8084000F07CBD3F
S1132560CDCC2C409A99193E08B5012000F07EFD8F
S113257086210248BDE80840FDF79EBEF85F0000D2
S113258008B5022000F072FD98210248BDE8084019
S1132590FDF792BEF85F000008B5042000F066FD68
S11325A00820BDE80840FFF743BF00BF30B585B041
S11325B000F066FD030724D5082000F057FDFFF75F
S11325C04BFF9FED187A07EE900AF4EEC77AF1EE0E
S11325D010FACCBF144B154B20221A6000F0EAFF0E
S11325E00B46024604460D466846114901F046FF73
S11325F09DF80A30302B09D0684600F077F805B012
S113260030BDBE210B48FDF757FED5E722462B46C9
S11326100949684601F032FF684600F067F805B0E2
S113262030BD00BF0000A042FCA00046FCA0004456
S113263014600000F85F00002460000000B589B059
S113264000F01EFDC30603D4D9210A48FDF734FE69
S1132650102000F00BFD0849684601F02FFF684682
S113266000F044F80121054800F0B8FB09B05DF81A
S113267004FB00BFF85F0000E85F00000060044056
S113268008B500F0FDFC830603D4F5210348FDF7EB
S113269013FE2020BDE8084000F0E8BCF85F00000D
S11326A070B58CB0CDE909104FF416510022012306
S11326B00091052612254FF4905469460A488DF876
S11326C004208DF806208DF807200B928DF8056004
S11326D0CDE9045307938DF820308DF8213006940A
S11326E000F096FB0CB070BD00A0044010B5044689
S11326F001F0ECFE21460246BDE81040014800F01E
S113270079BC00BF00A0044008B501210D48FDF7C5
S113271081FE002211460120FEF704FB0A210A482B
S1132720FEF7B4FB01210948FDF774FE01221146AE
S11327300020FEF7F7FA02210548BDE80840FEF73D
S1132740A5BB00BF4041050002001E0030253E002D
S11327500300200010B501212048FDF75BFE002195
S11327600520FFF7EFFA0422114600230520FFF7A6
S113277011FB00210520FFF7E5FA05210846002397
S11327800422FFF707FB4FF001110120FFF7DAFAEB
S11327900123184604220A21FFF7FCFA0123082228
S11327A00A210220FFF7F6FA012308220B21022056
S11327B0FFF7F0FA4FF480310320FFF7C3FA012347
S11327C004220A210320FFF7E5FA002301220B214A
S11327D00320BDE81040FFF7DDBA00BF00350A0052
S11327E01C4A5368052B31D8DFE803F0070B0F139D
S11327F01E0396211848FDF75FBD81211648FDF799
S11328005BBD84211448FDF757BD87211248FDF7AD
S113281053BD13689069D96909020160596804209D
S1132820014359605060704710B413689069DC69C3
S113283001682143016059680524022041F0080120
S11328405960546058605DF8044B70479921024800
S1132850FDF732BD34020020346000001A4B5A6880
S1132860052A2DD8DFE802F0070D1C2428033F2198
S11328701648FDF721BD1A68D968D16201225A6051
S1132880704710B4DA68196852000120022442F03B
S1132890010248605C601875CA625DF8044B7047B9
S11328A019680A6C032042F020020A6458607047D9
S11328B039210648FDF700BD3C210448FDF7FCBC66
S11328C042210248FDF7F8BC3402002034600000C5
S11328D0154A5368052B22D8DFE803F0070B0F19BC
S11328E01D0368211148FDF7E7BC57210F48FDF788
S11328F0E3BC5A210D48FDF7DFBC936811685B0007
S1132900012043F0010348601075CB6270476221D7
S11329100648FDF7D1BC65210448FDF7CDBC6B2109
S11329200248FDF7C9BC00BF340200203460000037
S113293038B51C4C6368052B2DD8DFE803F00E1462
S11329401A2026030025022084F8205000F0C2FB40
S1132950606A00F081FB656038BDAF211248BDE8B4
S11329603840FDF7A9BCB2210F48BDE83840FDF757
S1132970A3BCB5210C48BDE83840FDF79DBCB82187
S11329800948BDE83840FDF797BCBB210648BDE8BF
S11329903840FDF791BCC4210348BDE83840FDF739
S11329A08BBC00BF340200203460000030B400232C
S11329B0056C03648368D90704D5202343608368C6
S11329C0DA07FCD4436BC3634022032342604360B1
S11329D0436BDB05FCD520244460436B054A00218E
S11329E023F48073C36382F820104460516005644B
S11329F030BC70473402002030B585B0384B984263
S1132A0004460D465BD0374B98425DD0636B297802
S1132A106A7868688DF80010A9688DF8012013F0B1
S1132A20010F2A7B8DF80C20CDE901014FF0010341
S1132A3031D1A363636BDA0736D50123E3632B69D2
S1132A40A364A16C68696A7E2B7E01435200A16471
S1132A506264626C1343636469462046FFF7A8FB13
S1132A602046FFF7A3FF636BE36340232364236CD7
S1132A701B4A43F080032364236C43F02003236444
S1132A80236C944243F48073236422D0154B9C42FC
S1132A900FD005B030BDE363636BDB07CFD5F52101
S1132AA01148FDF709FCCAE7F1210F48FDF704FCC2
S1132AB0C3E70E4B4FF480625A6005B030BD01216C
S1132AC00B48FDF7A7FCA1E701210A48FDF7A2FC8A
S1132AD09CE7064B4FF400321A6005B030BD00BFCE
S1132AE000C0004000C400403460000000E100E089
S1132AF000820400009204002DE9F04188468168B8
S1132B009DF81C7011F0E00F044616461D4604D0D3
S1132B1040F25B110F48FDF7CFFB022000F0C0FA32
S1132B2022680D4B0698D86022F00402226047EA1E
S1132B304802E262002101220898C3F808801C6060
S1132B401F75C3E906655862596083F820206260E6
S1132B50BDE8F081346000003402002010B50D4B54
S1132B605C6B1A6C14406006DC6310D421060BD431
S1132B70E20506D4A30600D410BDBDE81040FFF75B
S1132B802FBEFFF7D5FEF5E7FFF7A2FEF0E7FFF74C
S1132B9065FEEBE700C0004010B50D4B5C6B1A6C92
S1132BA014406006DC6310D421060BD4E20506D47D
S1132BB0A30600D410BDBDE81040FFF711BEFFF717
S1132BC0B7FEF5E7FFF784FEF0E7FFF747FEEBE714
S1132BD000C4004010B500210446FFF715FB636BE9
S1132BE0002BFCD10420BDE8104000F073BA00BFF4
S1132BF070B584B004460D4646480121FDF70AFC31
S1132C00A368D80700F1828001236360636B002B03
S1132C10FCD1A368D90774D502236360636B002BCE
S1132C20FCD1A368DA0767D4002301212878E36084
S1132C306A788DF80330ADF804308DF808308DF8DB
S1132C40021003238DF80100694620468DF8002008
S1132C508DF806308DF80730FFF7F0FA636B002B20
S1132C60FCD195ED047ADFED2C6AD5ED057A27EEDB
S1132C70267A67EEA67ABCEEC77AFCEEE77A84ED94
S1132C80047A636B002BFCD1C4ED057A636B002BD3
S1132C90FCD1D5E90120697B2B7B95F828600243A0
S1132CA043EA4103032162642364A161E161A16AEF
S1132CB02A7E95F82030194841F01F01A162E26292
S1132CC0E26A174942EA4302E262E36A154A43EAC6
S1132CD08603E362EB6903606E6A134BE86A16606D
S1132CE04FF0006208601A60A368DB0702D5042075
S1132CF000F0D6F904B070BD59210C48FDF7DCFA98
S1132D0092E756210948FDF7D7FA85E72046FFF7F1
S1132D1061FF79E78006160000007A445C02002017
S1132D20640200206002002000E100E05060000026
S1132D3010B572B6244B1C6ADA6A1440E2079C622E
S1132D4006D51B6ADB072BD4204B186800F084F9E6
S1132D50A00707D51C4B1B6A990726D41C4B18687F
S1132D6000F07AF9620707D5174B1B6A5B0721D479
S1132D70184B186800F070F9200703D5124B1B6A32
S1132D8019071CD4E20603D50F4B1B6ADB0601D4DA
S1132D9062B610BDC7211048FDF78EFA62B610BDA9
S1132DA0B8210D48FDF788FACEE7BC210A48FDF7A3
S1132DB083FAD3E7C0210848FDF77EFAD8E7C42197
S1132DC00548FDF779FADDE7006004405C02002065
S1132DD060020020640200205060000010B5044628
S1132DE019B18268D20707D510BD8368DB07FBD50C
S1132DF0BDE81040FFF7EEBE042000F051F90121B8
S1132E002046FFF701FA636B002BFCD110BD00BF15
S1132E1070B584B00D464C79334BC96A2A688DF875
S1132E200040044601912879A97902929C42EA79EA
S1132E308DF80C008DF80D108DF80E204FD0E36A3C
S1132E4013F0010F4FF001033BD12363E36ADA0768
S1132E5040D5012363632B69A365D5E90531A26DD0
S1132E60EE6922480A43A2656365636D2049214ADD
S1132E7043EA460363656B6A0360AB6A0B602046F2
S1132E80002369461371FFF783FA174AC02353607E
S1132E90536C002BFCD169792046FFF75BFA95F857
S1132EA02020A3681A4203D1A368A3681342FBD06D
S1132EB00D4B9C4203D1104B4FF480021A6004B0B6
S1132EC070BD6363E36ADB07C5D5A6210B48FDF734
S1132ED0F3F9C0E7A2210948FDF7EEF9B9E70121AA
S1132EE00748FDF797FAAAE700A00440C0020020B3
S1132EF0C80200206802002000E100E070600000C9
S1132F0090171A0038B5374AD36A916B0B40536354
S1132F109A0710D403F0010404B938BD324D2B696B
S1132F20012B22D017D3022B45D07A212F48BDE89C
S1132F303840FDF7C1B92C4D2A69012A03F0010478
S1132F4020D00ED3022A16D154212848FDF7B4F913
S1132F50002CE2D0E2E76B212448BDE83840FDF7BD
S1132F60ABB901232B61002CD7D06E211F48BDE8DB
S1132F703840FDF7A1B957211C48FDF79DF9002CF5
S1132F80CBD0CBE7E9682B686A18127D9A625A6C39
S1132F90002AFCD1A86801318142E960E3D19A6B2F
S1132FA022F002029A639A6B022142F001029A63B0
S1132FB029610CB938BD2B685A6842F008025A607E
S1132FC05C6C002CFCD10A4B186800F045F82A68A8
S1132FD0936B23F001039363032000F07BF82C71BF
S1132FE02C6138BD00A0044068020020706000001D
S1132FF0C80200202DE9F041044688461746A3681C
S11330005B06FCD5FEF71CF90E4D0646414600232F
S113301005F11400EB602C60AF6001F04FFA01235E
S113302003202B7100F03CF82A68536843F0040332
S11330305360A36B43F002033046A363BDE8F04141
S1133040FEF702B96802002072B6024B00221A6031
S113305062B670479C02002072B6034A13680343A9
S1133060136062B6704700BF9C02002072B6034A28
S1133070136823EA0003136062B670479C020020C1
S1133080014B1868704700BF9C020020034B0022CC
S1133090C3E90022C3E902221A617047A00200209A
S11330A038B50446FEF7CCF8084A52F82430013308
S11330B0042B054642F8243003DD5E210448FDF765
S11330C0FBF82846BDE83840FEF7BEB8A002002051
S11330D09060000070B50F4D55F82030002B0FDDC7
S11330E00446FEF7ADF855F82430013B002B0646A4
S11330F045F8243005DB3046BDE87040FEF7A4B83F
S113310070BD05487A21FDF7D7F83046BDE8704018
S1133110FEF79AB8A00200209060000010B5FEF7F8
S11331208FF8144B1A68002A15DC5A68002A12DC3E
S11331309A68002A13DCDB68002B04464FF0010078
S113314006DDFEF715FA2046BDE81040FEF77CB810
S1133150FEF74AFA2046BDE81040FEF775B8064A65
S1133160136923F00403136130BFBDE81040FEF778
S11331706BB800BFA002002000ED00E0F0B58BB0FA
S1133180514C524F94E80F0001AE103486E80F0002
S11331900FCC05AD0FC522682A804D4B01227A64FD
S11331A0DB6C1B0E40F08C804A494B484AF6E852CF
S11331B00A60026842F0040202600B60474A136826
S11331C043F4005313604649464A0B6A23F44413FC
S11331D043F488130B62136843F4F8431360002428
S11331E0304602258DF800408DF80140FEF7C0FC02
S11331F068468DF80150FEF7DFFA05A8FDF7BEFF1B
S11332003948FDF7E7FB012211460320FDF78AFD4B
S113321005211120FDF73AFE224621462846FDF7F6
S113322081FDFFF77FF91AE02046FEF70DF8FFF75E
S113323027FF450723D4FFF723FFC40725D4FFF74F
S11332401FFF800727D4FFF71BFF010729D4FFF7CF
S113325017FFC2062BD4FFF713FF83062DD4FDF707
S1133260EFFF0446FFF70CFF0028DDD1FFF756FF00
S11332702046FDF7E9FFFFF703FF4507DBD5FFF71E
S11332808BF9FFF7FDFEC407D9D5FFF76DF9FFF7FA
S1133290F7FE8007D7D5FFF773F9FFF7F1FE0107B3
S11332A0D5D5FFF783F9FFF7EBFEC206D3D5FFF7B9
S11332B0C5F9FFF7E5FE8306D1D5FFF7E1F9CEE7BF
S11332C0012B80D17AE700BFB860000000000E40F7
S11332D0B081E00F90310E4098310E4064310E40C1
S11332E000400E40A4310E4080BA8C0181F00041B0
S11332F002E000BF83F0004330B54FEA41044FEAD7
S1133300430594EA050F08BF90EA020F1FBF54EA71
S1133310000C55EA020C7FEA645C7FEA655C00F00D
S1133320E2804FEA5454D4EB5555B8BF6D420CDDDE
S11333302C4480EA020281EA030382EA000083EA61
S1133340010180EA020281EA0303362D88BF30BD01
S113335011F0004F4FEA01314FF4801C4CEA113157
S113336002D0404261EB410113F0004F4FEA0333B6
S11333704CEA133302D0524263EB430394EA050F41
S113338000F0A780A4F10104D5F1200E0DDB02FAB0
S11333900EFC22FA05F2801841F1000103FA0EF244
S11333A0801843FA05F359410EE0A5F120050EF10A
S11333B0200E012A03FA0EFC28BF4CF0020C43FA3B
S11333C005F3C01851EBE37101F0004507D54FF048
S11333D0000EDCF1000C7EEB00006EEB0101B1F598
S11333E0801F1BD3B1F5001F0CD349085FEA3000DE
S11333F04FEA3C0C04F101044FEA445212F5800FE9
S113340080F09A80BCF1004F08BF5FEA500C50F185
S1133410000041EB045141EA050130BD5FEA4C0C68
S1133420404141EB010111F4801FA4F10104E9D1F1
S113343091F0000F04BF01460020B1FA81F308BFE8
S11334402033A3F10B03B3F120020CDA0C3208DDB4
S113345002F1140CC2F10C0201FA0CF021FA02F18F
S11334600CE002F11402D8BFC2F1200C01FA02F1FF
S113347020FA0CFCDCBF41EA0C019040E41AA2BF24
S113348001EB0451294330BD6FEA04041F3C1CDAEC
S11334900C340EDC04F11404C4F1200220FA04F00C
S11334A001FA02F340EA030021FA04F345EA0301B6
S11334B030BDC4F10C04C4F1200220FA02F001FA78
S11334C004F340EA0300294630BD21FA04F02946FA
S11334D030BD94F0000F83F4801306BF81F4801193
S11334E00134013D4EE77FEA645C18BF7FEA655C06
S11334F029D094EA050F08BF90EA020F05D054EAD8
S1133500000C04BF1946104630BD91EA030F1EBFDC
S11335100021002030BD5FEA545C05D140004941E0
S113352028BF41F0004130BD14F580043CBF01F5D3
S1133530801130BD01F0004545F0FE4141F47001B9
S11335404FF0000030BD7FEA645C1ABF1946104694
S11335507FEA655C1CBF0B46024650EA013406BF95
S113356052EA033591EA030F41F4002130BD00BF54
S113357090F0000F04BF0021704730B54FF4806411
S113358004F132044FF000054FF0000150E700BF92
S113359090F0000F04BF0021704730B54FF48064F1
S11335A004F1320410F0004548BF40424FF00001DE
S11335B03EE700BF42004FEAE2014FEA31014FEA21
S11335C002701FBF12F07F4393F07F4F81F0605170
S11335D0704732F07F4208BF704793F07F4F04BFBB
S11335E041F40021704730B54FF4607401F0004598
S11335F021F000411CE700BF50EA010208BF7047F8
S113360030B54FF000050AE050EA010208BF7047E8
S113361030B511F0004502D5404261EB41014FF451
S1133620806404F132045FEA915C3FF4D8AE4FF059
S113363003025FEADC0C18BF03325FEADC0C18BF3C
S1133640033202EBDC02C2F1200300FA03FC20FA8D
S113365002F001FA03FE40EA0E0021FA02F11444DA
S1133660BDE600BF70B54FF0FF0C4CF4E06C1CEAF3
S113367011541DBF1CEA135594EA0C0F95EA0C0F64
S113368000F0DEF82C4481EA030621EA4C5123EAD7
S11336904C5350EA013518BF52EA033541F4801106
S11336A043F4801338D0A0FB02CE4FF00005E1FBB9
S11336B002E506F00042E0FB03E54FF00006E1FB03
S11336C003569CF0000F18BF4EF0010EA4F1FF0446
S11336D0B6F5007F64F5407404D25FEA4E0E6D4186
S11336E046EB060642EAC62141EA55514FEAC52097
S11336F040EA5E504FEACE2EB4F1FD0C88BFBCF513
S1133700E06F1ED8BEF1004F08BF5FEA500E50F1C3
S1133710000041EB045170BD06F0004646EA010189
S113372040EA020081EA0301B4EB5C04C2BFD4EBBB
S11337300C0541EA045170BD41F480114FF0000EB4
S1133740013C00F3AB8014F1360FDEBF002001F022
S1133750004170BDC4F10004203C35DA0C341BDC9C
S113376004F11404C4F1200500FA05F320FA04F06E
S113377001FA05F240EA020001F0004221F00041A2
S113378010EBD37021FA04F642EB06015EEA430E15
S113379008BF20EAD37070BDC4F10C04C4F1200545
S11337A000FA04F320FA05F001FA04F240EA0200F8
S11337B001F0004110EBD37041F100015EEA430EC9
S11337C008BF20EAD37070BDC4F1200500FA05F2E9
S11337D04EEA020E20FA04F301FA05F243EA020368
S11337E021FA04F001F0004121FA04F220EA020077
S11337F000EBD3705EEA430E08BF20EAD37070BDBD
S113380094F0000F0FD101F00046400041EB01019C
S113381011F4801F08BF013CF7D041EA060195F07E
S1133820000F18BF704703F00046520043EB030338
S113383013F4801F08BF013DF7D043EA0603704725
S113384094EA0C0F0CEA135518BF95EA0C0F0CD030
S113385050EA410618BF52EA4306D1D181EA030176
S113386001F000414FF0000070BD50EA410606BF70
S11338701046194652EA430619D094EA0C0F02D1B5
S113388050EA013613D195EA0C0F05D152EA0336FA
S11338901CBF104619460AD181EA030101F0004118
S11338A041F0FE4141F470014FF0000070BD41F061
S11338B0FE4141F4780170BD70B54FF0FF0C4CF43B
S11338C0E06C1CEA11541DBF1CEA135594EA0C0F5A
S11338D095EA0C0F00F0A7F8A4EB050481EA030EA7
S11338E052EA03354FEA013100F088804FEA03338E
S11338F04FF0805545EA131343EA12634FEA02225C
S113390045EA111545EA10654FEA00260EF000411C
S11339109D4208BF964244F1FD0404F5407402D26E
S11339205B084FEA3202B61A65EB03055B084FEAFF
S113393032024FF480104FF4002CB6EB020E75EBFC
S1133940030E22BFB61A754640EA0C005B084FEA24
S11339503202B6EB020E75EB030E22BFB61A7546A1
S113396040EA5C005B084FEA3202B6EB020E75EBEC
S1133970030E22BFB61A754640EA9C005B084FEA64
S11339803202B6EB020E75EB030E22BFB61A754671
S113399040EADC0055EA060E18D04FEA051545EA60
S11339A016754FEA06164FEAC30343EA52734FEA09
S11339B0C2025FEA1C1CC0D111F4801F0BD141EA82
S11339C000014FF000004FF0004CB6E711F4801FE7
S11339D004BF01430020B4F1FD0C88BFBCF5E06FC7
S11339E03FF6AFAEB5EB030C04BFB6EB020C5FEAD7
S11339F0500C50F1000041EB045170BD0EF0004E2C
S1133A004EEA113114EB5C04C2BFD4EB0C0541EA5D
S1133A10045170BD41F480114FF0000E013C90E65A
S1133A2045EA060E8DE60CEA135594EA0C0F08BF1E
S1133A3095EA0C0F3FF43BAF94EA0C0F0AD150EA1D
S1133A4001347FF434AF95EA0C0F7FF425AF1046B0
S1133A5019462CE795EA0C0F06D152EA03353FF4D8
S1133A60FDAE1046194622E750EA410618BF52EA55
S1133A7043067FF4C5AE50EA41047FF40DAF52EA29
S1133A8043057FF4EBAE12E74FEA4102B2F1E043A3
S1133A9024BFB3F5001CDCF1FE5C0DD901F0004C31
S1133AA04FEAC0024CEA5070B2F1004F40EB830081
S1133AB008BF20F00100704711F0804F21D113F1AD
S1133AC03872BCBF01F00040704741F480114FEAE6
S1133AD05252C2F11802C2F1200C10FA0CF320FA6F
S1133AE002F018BF40F001004FEAC1234FEAD3238C
S1133AF003FA0CFC40EA0C0023FA02F34FEA4303F6
S1133B00CCE77FEA625307D150EA01331EBF4FF07E
S1133B10FE4040F44000704701F0004040F0FE4099
S1133B2040F40000704700BF08B5074B044613B1CA
S1133B300021AFF30080054B1868836A03B19847EE
S1133B40204602F0E5F800BF00000000DC60000041
S1133B5070B50D4E0D4CA41BA4100025A54209D12F
S1133B600B4E0C4C02F09CF9A41BA4100025A5429A
S1133B7005D170BD56F8253098470135EEE756F863
S1133B80253098470135F2E7F8010020F8010020BC
S1133B90F8010020FC01002010B5431E0A449142A4
S1133BA000D110BD11F8014B03F8014FF7E70244AF
S1133BB00346934200D1704703F8011BF9E72DE94E
S1133BC0F04788B0002B149F109EDDE9121A1D46A1
S1133BD027F02007BBBF03F100431D4600232D231C
S1133BE01446B8BF1446462F0B7004D0452F00D19D
S1133BF00136022300E0032307AA049206AACDE9B2
S1133C0002A2CDE9003622462B4600F0F5FC472FF0
S1133C10804602D1119BDB0726D5462F08EB060907
S1133C2011D198F80030302B0AD10022002320460D
S1133C30294602F0C5F818B9C6F10106CAF80060B1
S1133C40DAF800309944002200232046294602F085
S1133C50B7F838B93022079B4B4505D2591C079158
S1133C601A70F8E7CDF81C90079B159AA3EB08038C
S1133C704046136008B0BDE8F087F7B50029044654
S1133C80BABF49422D232B23092904F8022B437080
S1133C9020DD0DF107031F460A2691FBF6F506FB0E
S1133CA015113031092D03F8011C03F1FF322946A7
S1133CB009DC3031023B02F8011CBB42224604D32A
S1133CC0101A03B0F0BD1346E7E713F8012B04F80C
S1133CD0012BF2E7302319448370021DC170EFE712
S1133CE02DE9F04F91B00C46DDF8688016461F466A
S1133CF0054601F03FFA03680893184600F0E6FB16
S1133D0000230E93D8F800300990073323F00703FB
S1133D1003F1080294F818A0D4F800B0C8F8002001
S1133D20D3E90023C4E91223D4E9128929F000431A
S1133D300B93CDF828804FF0FF32A94BDDE90A013F
S1133D4002F070F870BB4FF0FF32A54BDDE90A01B9
S1133D5002F04AF830BB002200234046494602F0F4
S1133D6039F810B12D2384F843309E4A9E4BBAF1A2
S1133D70470F8CBF90469846032323612BF004031E
S1133D8023604FF00009009733460FAA21462846C6
S1133D9000F0ECF9013040F090804FF0FF3011B0AA
S1133DA0BDE8F08F42464B464046494602F03AF899
S1133DB010B18E4A8E4BDAE76368591C4BF480626B
S1133DC00EA90DA840D1062363600DF13303CDE99C
S1133DD001234FF0000C63682260CDE9030A0093CD
S1133DE042464B46CDE9051C2846FFF7E8FE0AF09B
S1133DF0DF03472B804609D10D9BD81C02DB626888
S1133E00934247DDAAF1020A5FFA8AFABAF1650F12
S1133E100D9924D80139524604F150000D91FFF751
S1133E202CFF0E9A1318012A8146236102DC2268B2
S1133E30D10701D5013323619DF83330002BA2D083
S1133E402D2384F843309EE7BAF1670F00F07881A0
S1133E50BAF1470FB9D1002BB7D10123B4E7BAF1B6
S1133E60660F19D1002963680CDD216113B922683A
S1133E70D20702D501330B4423610D9BA3654FF098
S1133E800009D9E713B92268D00701D50233F3E753
S1133E900123F1E74FF0670ADDE90D32934205DBB8
S1133EA022682361D107E8D50133E5E7002BD4BFAD
S1133EB0C3F1020301231344DEE723685A0507D440
S1133EC02369424631462846B84701302BD164E77E
S1133ED0BAF1650F40F2DD8000220023D4E912011B
S1133EE001F06EFF002833D00123424A31462846B0
S1133EF0B84701303FF451AFDDE90D239A4202DBAC
S1133F002368D8070FD5DDE9082331462846B8478A
S1133F1001303FF442AF4FF0000804F11A090E9B40
S1133F20013B434509DC23689B0700F10481E068F9
S1133F300F9B9842B8BF184631E701234A463146E1
S1133F402846B84701303FF428AF08F10108E6E7F6
S1133F500D9B002B2BDC0123264A31462846B8470B
S1133F6001303FF41AAF0D9B23B90E9B13B923689C
S1133F70D907D8D5DDE9082331462846B8470130AA
S1133F803FF40BAF4FF0000904F11A0A0D9B5B429A
S1133F904B4501DC0E9B94E70123524631462846EB
S1133FA0B84701303FF4F9AE09F10109EEE70E9A82
S1133FB0A36D9A42A8BF1A46002A914607DD13460C
S1133FC0314642462846B84701303FF4E6AE04F194
S1133FD01A034FF0000B29EAE9790A9316E000BFAF
S1133FE0FFFFEF7FE4600000E0600000EC60000091
S1133FF0E8600000F060000001230A9A3146284678
S1134000B84701303FF4C9AE0BF1010BD4F858A006
S1134010AAEB09035B45EFDCDDE90D239A42D044AA
S113402015DB2368DA0712D40E9B0D99A3EB0A0261
S1134030A3EB010A9245A8BF9246BAF1000F0EDC29
S11340404FF000082AEAEA7A04F11A0919E0DDE9D6
S1134050082331462846B8470130E5D19DE653464A
S1134060424631462846B8470130E9D195E6012356
S11340704A4631462846B84701303FF48EAE08F12F
S11340800108DDE90D239B1AA3EB0A034345EEDC8B
S113409049E70E9A012A01DCDB073AD5012342469F
S11340A031462846B84701303FF477AEDDE90823AE
S11340B031462846B847013008F101083FF46DAE97
S11340C00E9B002203F1FF3AD4E91201002301F010
S11340D077FEC8B95346424631462846B8470130B0
S11340E00ED15AE60123524631462846B8470130DC
S11340F03FF453AE08F101080E9B013B4345F1DC4C
S11341004B4604F15002DDE64FF0000804F11A0AB0
S1134110F2E70123DFE701234A4631462846B84740
S113412001303FF43AAE08F10108E3680F9A9B1A94
S11341304345F0DCFBE64FF0000804F11909F4E70D
S1134140002B3FF48AAE4FF0000CCDE9051C0DF1B5
S113415033012260CDE9030ACDE9012100934246EF
S11341604B462846FFF72BFD804645E62DE9F047F0
S113417091461F468A680B69DDF820809342B8BFD8
S11341801346C9F8003091F8432006460C4612B194
S11341900133C9F800302368990642BFD9F80030CA
S11341A00233C9F80030256815F0060507D104F17B
S11341B0190AE368D9F800209B1AAB4228DC94F86A
S11341C043302268003318BF012392062DD404F132
S11341D0430239463046C047013020D02368E568A1
S11341E0D9F8002003F00603042B08BFAD1AA36816
S11341F022690CBF25EAE57500259342C4BF9B1ACA
S1134200ED184FF000091A344D451AD1002008E08A
S11342100123524639463046C047013003D14FF09E
S1134220FF30BDE8F0870135C3E7E1185A1C3020A0
S113423081F84300224494F8451082F84310023375
S1134240C5E70123224639463046C0470130E6D04F
S113425009F10109D8E700002DE9F04301F1430C0D
S11342600C46097E85B06E291746064698460C9A78
S113427000F0B38022D8632936D00AD8002900F090
S1134280B980582900F0838004F1420584F8421073
S113429032E0642901D06929F6D120681368050643
S11342A003F104012AD51B681160002B03DA2D22C7
S11342B05B4284F843206F480A2239E0732900F0F6
S11342C09D8008D86F2920D07029DDD1236843F060
S11342D02003236003E0752917D07829D4D17823EB
S11342E084F84530644855E01368191D1B68116053
S11342F004F1420584F8423001238CE01B6811600C
S113430010F0400F18BF1BB2CFE713682568181DC3
S11343101060280601D51B6802E06806FBD51B88DF
S113432054486F2914BF0A220822002184F843103C
S11343306568A560002DC0F29580216821F0040114
S11343402160002B3DD1002D40F08E806546082A67
S11343500BD12368DB0708D5236962689A42DEBF64
S1134360302305F8013C05F1FF35ACEB050323616F
S1134370CDF800803B4603AA21463046FFF7F6FEFF
S113438001304DD14FF0FF3005B0BDE8F08339481E
S113439084F84510136821681D1D1B6815600A0602
S11343A00BD5CA0744BF41F0200121601BB9226824
S11343B022F0200222601022B7E74D0648BF9BB2CC
S11343C0EFE76546B3FBF2F102FB1133C35C05F87A
S11343D0013D0B460029F5D1B9E7136825686169E9
S11343E0181D106028061B6801D5196002E06A06D2
S11343F0FBD51980002323616546B9E71368191DAD
S113440011601D6862680021284600F0C9FE08B1E9
S1134410401B606063682361002384F84330A7E78E
S113442023692A4639463046C0470130AAD023685A
S11344309B0713D4E068039B9842B8BF1846A3E7D0
S113444001234A4639463046C04701309AD00135E7
S1134450E368039A9B1AAB42F2DCEBE7002504F114
S11344601909F5E7002BACD1037884F8423004F144
S113447042056CE7F2600000036100000EB400B571
S11344809CB01DAB029006906FF000410948079163
S11344900491094953F8042B05910068019302A97A
S11344A001F0BAFA029B00221A701CB05DF804EB0A
S11344B003B07047140000200802FFFF034611F800
S11344C0012B03F8012B002AF9D17047034613F896
S11344D0012B002AFBD1181A013870472DE9F74F38
S11344E003690C69A3428046C0F28280013C01F159
S11344F014074FEA840C00F1140657F8245056F8B8
S1134500240006EB0C03013507EB0C090193B0FB07
S1134510F5F595B34FF0000A3846B646D34650F841
S1134520042B93B205FB03A34FEA134A9BB2ABEBF4
S11345300303120CDEF800B005FB02A213FA8BF39E
S11345404FEA124A1FFA82FBDEF80020CBEB12423C
S113455002EB23429BB243EA024381454FEA224BDA
S11345604EF8043BDBD256F80C3033B9019B043BC4
S11345709E421A4630D3C8F81040404601F076F8FF
S1134580002825DB013530464FF0000C57F8042B8A
S1134590D0F800E093B2ACEB0303120C13FA8EF3E1
S11345A0C2EB1E4202EB23429BB243EA0243B945EB
S11345B04FEA224C40F8043BE8D256F8242006EB9C
S11345C084032AB9043B9E421A460BD3C8F8104010
S11345D0284603B0BDE8F08F1268043B002ACAD114
S11345E0013CC5E71268043B002AEFD1013CEAE72D
S11345F00020EEE7000000002DE9F04F456A97B077
S113460016461F460446DDF88C80CDE902673DB9A5
S1134610102000F0BDFD6062C0E901550560C56071
S1134620636A196851B15A684A60012393408B60E8
S1134630204600F039FE636A00221A603B1EBBBFAD
S113464023F00043039300230122ACBFC8F80030D9
S1134650C8F80020B24BDDF80C8033EA08031BD104
S1134660229A42F20F731360029B23B9C8F313001A
S1134670002800F04F85249B53B9AA4B21E0AA4B94
S113468005930833249A1360059817B0BDE8F08F9A
S1134690A44B05930333F5E7DDE902670022002309
S11346A03046394601F08CFB824660B1229A0123E0
S11346B01360249B002B00F02A859C4B249A1360E2
S11346C0013B0593E0E714AB019315AB009332462D
S11346D03B46204601F041F8C8F30A558346002DB5
S11346E07CD0C7F3130343F07F59B04649F4401913
S11346F0A5F2FF35CDF84CA000228D4B404649462B
S1134700FEF7F8FD80A3D3E90023FEF7ABFF80A3F7
S1134710D3E90023FEF7F0FD064628460F46FEF7D0
S113472037FF7DA3D3E90023FEF79CFF02460B4627
S113473030463946FEF7E0FD06460F4601F088FB99
S11347400022824600233046394601F043FB48B13B
S11347505046FEF71DFF32463B4601F031FB08B9D7
S11347600AF1FF3ABAF1160F59D8724901EBCA019E
S1134770DDE90223D1E9000101F04AFB002850D011
S11347800AF1FF3A00231293149B5D1BB5F1010853
S113479049BFC5F10103002308934FF0000858BF37
S11347A00893BAF1000F3EDB0023D044CDF834A0C7
S11347B00993209B092B00F29080052BC4BF043B76
S11347C02093209BA3F10203CCBF00250125032BDA
S11347D000F28F80DFE803F07D7F3171DDE914534F
S11347E01D4405F23240202813DDC0F14000029B35
S11347F008FA00F805F2124023FA00F048EA000033
S1134800FEF7B6FE01238046A1F1F879013D13932A
S113481072E7029BC0F1200003FA00F0F0E70123E5
S1134820B1E71290B0E7089BA3EB0A030893CAF11F
S11348300003099300230D93BBE701230C93219BF1
S1134840002B59DD06939946666A002272600422A1
S113485002F114009842716870D9204600F0F0FC0F
S1134860636A30601B680593B9F10E0F00F2EB80A8
S1134870002D00F0E8809DED027BBAF1000F8DED74
S1134880107B79DD2B4A0AF00F0302EBC30393ED8F
S1134890007B4FEA2A16F0068DED0A7B6AD5264B7B
S11348A0DDE91001D3E90823FFF706F8CDE9020199
S11348B006F00F060325204F51E001230C93219BA2
S11348C0534403F1010906934B46012BB8BF01235E
S11348D0BAE70023B2E70023F0E701250023209381
S11348E00C954FF0FF330693994600221223219230
S11348F0AAE701230C93F4E70123069399461A4689
S1134900F5E700BFAFF3008061436F63A787D23F31
S1134910B3C8608B288AC63FFB799F501344D33FAA
S11349200000F07F1D61000014610000F1600000D0
S11349300000F83F506100002861000001317160FF
S1134940520085E7F10708D5DDE90A01D7E900231C
S1134950FEF788FECDE90A01013576100837002EEE
S1134960F0D1DDE90A23DDE90201FEF7A5FFCDE977
S113497002011AE002259EE700F0A080CAF10006B9
S11349809F4BA04F06F00F0203EBC203D3E90023B1
S1134990DDE91001FEF766FECDE9020136110023C0
S11349A00225002E7FD1002BE1D1129B002B00F0B9
S11349B08780DDE902670022934B3046394601F0D7
S11349C009FA00287CD0B9F1000F79D0069B002B9E
S11349D035DD0AF1FF330A93394600228B4B30460A
S11349E0FEF740FECDE90201069F01352846FEF799
S11349F0CFFDDDE90223FEF735FE0022844BFEF7EE
S1134A007BFC0546A1F15076002F5DD10022814B3D
S1134A10DDE90201FEF76EFC2A463346CDE90201C8
S1134A2001F0F6F9002840F088822A4606F1004396
S1134A30DDE9020101F0CEF9002840F07C82DDE9D5
S1134A401023CDE90223159B002BC0F25081BAF14B
S1134A500E0F00F34C816A4B03EBCA0393ED007B0A
S1134A60219B002B8DED067B80F2D880B9F1000FDD
S1134A7000F3D48040F05E820022664B51EC170BA9
S1134A80FEF7F0FDDDE9022301F0B8F94F464E468A
S1134A90002840F03482059B059A5D1C3123137075
S1134AA00AF1010A2FE2F20705D5D7E90023FEF740
S1134AB0D9FD013501237610083772E7022574E722
S1134AC0CDF828A04F4691E74D4B03EBC70353E9BC
S1134AD002010C9B002B47D002460B4600204E4996
S1134AE0FEF7EAFE2A463346FEF704FCCDE90E0142
S1134AF0059DDDE9020101F0ABF90646FEF748FD2C
S1134B0002460B46DDE90201FEF7F4FB303605F8F8
S1134B10016BDDE90E23CDE9020101F05BF9002808
S1134B2063D1DDE9022300203749FEF7E3FBDDE929
S1134B300E2301F04FF9002840F0B780059BEB1AD3
S1134B409F427FF77CAF0022304BDDE90E01FEF778
S1134B5089FD0022CDE90E012C4BDDE90201FEF7AF
S1134B6081FDCDE90201C4E733462A46FEF77AFD0A
S1134B70059BCDE90E01DD191E46DDE9020101F0B8
S1134B8067F90746FEF704FD303702460B46DDE9B8
S1134B900201FEF7AFFB06F8017BAE42CDE902014C
S1134BA04FF0000226D11C4BDDE90E01FEF7A4FBF9
S1134BB002460B46DDE9020101F02AF9002874D10E
S1134BC0DDE90E2300201449FEF794FB02460B4650
S1134BD0DDE9020101F0FEF800283FF430AF15F8DA
S1134BE0013C302B05F1FF3202D0DDF828A04AE069
S1134BF01546F4E7054BFEF735FDCDE90201BCE7A8
S1134C0050610000286100000000F03F00002440D3
S1134C1000001C40000014400000E03FDDE9026792
S1134C20059DDDE9062330463946FEF745FE01F0D1
S1134C300FF98046FEF7ACFCDDE90623FEF712FD12
S1134C4002460B463046394608F13006FEF752FB61
S1134C5005F8016B059EAE1BB14502460B4639D1E2
S1134C60FEF74AFBDDE9062306460F4601F0D0F8BD
S1134C70C8B9DDE906233046394601F0A1F810B180
S1134C8018F0010F0FD15946204600F00DFB002308
S1134C90229A2B700AF101031360249B002B3FF42A
S1134CA0F3AC1D60F0E4CDF828A015F8012C392AE6
S1134CB005F1FF3308D1059A9A4209D10A9B0133C1
S1134CC00A933023137013461A7801321A708CE752
S1134CD01D46EAE700229B4BFEF7C4FC002200239A
S1134CE006460F4601F06CF800289AD0CBE70C9AE0
S1134CF0002A00F08B80209A012A6EDC139A002A85
S1134D0067D003F23343DDE90857089A01211A44B6
S1134D1020460892984400F067FB0646002D0CDDFF
S1134D20B8F1000F09DD4545089A2B46A8BF434654
S1134D30D21A0892ED1AA8EB0308099BEBB10C9B5D
S1134D40002B67D08FB131463A46204600F0ECFB89
S1134D505A4601460646204600F04FFB59460A9043
S1134D60204600F0A1FA0A9B9B46099BDA1B04D05B
S1134D705946204600F0D8FB83460121204600F026
S1134D8033FB0D9B0746002B00F0CB811A460146EE
S1134D90204600F0C9FB209B012B074640DC029B08
S1134DA0002B39D1039BC3F31303002B36D1039B90
S1134DB023F000431B0D1B052BB1089B0133089303
S1134DC008F10108012309930D9B002B2AD101202E
S1134DD030E0149BC3F1360395E7099B09F1FF37D3
S1134DE0BB42BFBF099B0997FA1A0D9BBBBF9B1817
S1134DF00D93DF1B0027B9F1000FB5BF089B089D79
S1134E00A3EB09054B46B8BF00237EE7DDE908574D
S1134E100C9E83E7099AABE70023D4E7029BD2E711
S1134E20002309933B6907EB8303186900F08EFAAA
S1134E30C0F12000404410F01F0047D0C0F120030F
S1134E40042B3BDD089BC0F11C000344089305447C
S1134E508044089B002B05DD59461A46204600F085
S1134E60B1FB8346B8F1000F05DD394642462046C2
S1134E7000F0A8FB0746129B53B33946584600F08E
S1134E80F5FB002824DA002359460A22204600F0C4
S1134E9022FA0C9B0AF1FF3A8346002B00F048816A
S1134EA0002331460A22204600F015FA069B002B07
S1134EB006464FDC209B022B4CDD11E0C9D0089A3A
S1134EC01C331A4408921D449844C2E70346F6E78B
S1134ED0B9F1000F38DC209B022B35DDCDF818909A
S1134EE0069B63B939460522204600F0F4F90146D1
S1134EF00746584600F0BAFB00283FF7CCAD219B8B
S1134F00059D6FEA030A4FF000093946204600F078
S1134F10CBF9002E3FF4B7AEB9F1000F05D0B1457F
S1134F2003D04946204600F0BFF93146204600F040
S1134F30BBF9A8E600273E46E1E7DDF828A03E4697
S1134F40A9E500BF000024400C9BCDF81890002B6D
S1134F5000F0F580002D05DD31462A46204600F09C
S1134F6031FB0646099B002B4CD07168204600F0AB
S1134F7067F9326902320546920006F10C010C30E1
S1134F80FEF70AFE01222946204600F01BFB059B82
S1134F900893029B03F00103B14609930646394680
S1134FA05846FFF79BFA4946054600F13008584633
S1134FB000F05CFB324602903946204600F070FB5C
S1134FC0C368024603BB01460A90584600F04EFBF4
S1134FD00A9A0346114620460A9300F065F90A9B93
S1134FE0A3B9209A92B9099A82B9B8F1390F29D094
S1134FF0029B002B01DD05F13108089B5D1C83F841
S1135000008082E73046C2E70123E3E7029A002AE0
S113501004DB24D1209A12BB099A02BB002BECDDDD
S113502059460122204600F0CDFA3946834600F065
S11350301DFB002803DCE0D118F0010FDDD0B8F12E
S1135040390FD8D1089B089A5D1C3923137015F8C1
S1135050013C392B05F1FF324ED0013353E0089A5D
S1135060002B02F1010506DDB8F1390FEAD008F191
S11350700108089BC3E7059B069A05F8018CEB1A07
S1135080934221D0594600230A22204600F023F9F6
S1135090B14583464FF000034FF00A0249462046CB
S11350A005D100F018F981460646089577E700F027
S11350B012F93146814600230A22204600F00BF9FA
S11350C00646F2E74FF0000959460122204600F057
S11350D079FA3946834600F0C9FA0028B7DC02D1D0
S11350E018F0010FB3D115F8013C302B05F1FF3254
S11350F07FF40BAF1546F6E7059B934205D1059A5D
S11351000AF1010A31231370FFE615469FE7174B96
S1135110FFF7D7BA249B002B7FF4B1AA144BFFF7F7
S1135120D0BA209B012B7FF73AAE0D9B09934EE634
S1135130069B002B03DC209B022B3FF7D1AE059D81
S113514039465846FFF7CAF900F1300805F8018BD3
S1135150059B069AEB1A9A42B4DD594600230A22AB
S1135160204600F0B8F88346EAE700BFF06000008C
S113517014610000044B1B68186A044B002808BF24
S11351801846F030704700BF14000020780000205B
S1135190024B0146186800F08BBB00BF14000020CE
S11351A001F0FF01102A2BDB10F0070F08D010F8D4
S11351B0013B013A8B422DD010F0070F42B3F6D1D8
S11351C0F0B441EA012141EA014122F007047FF0F1
S11351D000070023F0E80256083C85EA010586EA48
S11351E0010685FA47F5A3FA87F586FA47F6A5FA84
S11351F087F68EB9EED1F0BC01F0FF0102F0070290
S113520032B110F8013B013A83EA010313B1F8D13A
S11352100020704701387047002D06BF354603381B
S1135220073815F0010F07D1013015F4807F02BF54
S1135230013015F4C03F0130F0BC0138704700BFA5
S113524070B5456A04460E463DB91020FFF7A0FF2D
S11352506062C0E901550560C560656AEB6883B1A9
S1135260636ADB6853F82600B8B9012101FA06F530
S11352706A1D9200204600F0BFFA60B1C0E90165E2
S11352800EE021220421204600F0B6FA636AE860A9
S1135290DB68002BE4D1002070BD026843F82620AF
S11352A00023C0E90333F7E770B5446A06460D46A8
S11352B03CB91020FFF76CFF7062C0E90144046040
S11352C0C4603DB1736A6A68DB6853F822102960D0
S11352D043F8225070BD2DE9F0410D691F46064682
S11352E00C4601F1140C0023DCF8000081B202FB2F
S11352F001710F0C000C02FB007089B2013301EB49
S113530000419D424FEA10474CF8041BECDCD7B136
S1135310A368AB4212DC616830460131FFF790FFAD
S11353202269023204F10C01804692000C30FEF72F
S113533033FC21463046FFF7B7FF444604EB8503B0
S113534001355F6125612046BDE8F081020C12043D
S11353500346B2B90304102013F07F4F04BF1B02AD
S1135360083013F0704F04BF1B01043013F0404F9A
S113537004BF9B000230002B06DB5B0003D5013029
S113538070470020E8E720207047036813F0070205
S113539001460BD0DA0723D4980749BF5B089B0862
S11353A001200B605CBF0B600220704798B2A8B963
S11353B01B0C102013F0FF0F04BF1B0A08301A0740
S11353C004BF1B0904309A0704BF9B080230DA07A4
S11353D002D45B0806D001300B6070471046E9E741
S11353E0002070472020704710B50C460121FFF7BC
S11353F027FF01224461026110BD2DE9F74F1446D5
S11354000A6923699A42B8BF0B468846BCBFA046C6
S11354101C46D8F81070D4F81090D8F80830D8F892
S1135420041007EB0906B342B8BF0131FFF708FFC8
S113543000F1140505EB860E2B460022734516D3A6
S113544004F1140208F1140102EB890301EB87074C
S11354500093009B019293420CD8002E03DD5EF86A
S1135460043D002B5DD0066103B0BDE8F08F43F826
S1135470042BE3E7B2F800B0BBF1000F23D0894658
S1135480AC464FF0000859F8044BDCF800A0A3B276
S11354901FFA8AFA0BFB03A34FEA144ADCF8004014
S11354A043444FEA14480BFB0A8404EB1344E246DA
S11354B09BB243EA04434F454FEA14484AF8043B7D
S11354C02BD8CCF80480019BB3F802A00432BAF1C3
S11354D0000F20D02B688946A8464FF0000BB9F87E
S11354E000C0B8F802400AFB0C445C44C4469BB2BA
S11354F043EA04434CF8043B59F8043BB8F804B0BD
S11355001B0C0AFB03B303EB14434F454FEA134B45
S113551005D8C8F8043004359BE7D446B3E7E04621
S1135520DDE7013E99E700002DE9F843154612F046
S1135530030206460F4607D0013A214C002354F8D3
S11355402220FFF7C8FE0746AD1035D0746A3CB977
S11355501020FFF71DFE7062C0E901440460C460BE
S1135560D6F82480D8F808404CB940F2712130466E
S1135570FFF73AFF0023C8F80800044603604FF021
S11355800008EB070AD5394622463046FFF735FFB7
S1135590394681463046FFF787FE4F466D100BD0E3
S11355A0206838B9224621463046FFF726FF20609E
S11355B0C0F800800446E4E73846BDE8F88300BF3D
S11355C0186200002DE9F0470C464FEA621A23697D
S11355D049680AEB0309A3680746164609F1010561
S11355E0AB4232DB3846FFF72BFE0023804600F146
S11355F014011A4653452BDB20692AEAEA7A04F19E
S1135600140316F01F0201EB8A0103EB800C25D072
S1135610C2F1200E00201E688A46964030434AF8A4
S1135620040B53F8040B9C4520FA0EF014D8486080
S113563008B109F10205013D3846C8F81050214669
S1135640FFF732FE4046BDE8F08701315B00C7E753
S113565041F823200133CDE75146DCE7043953F800
S1135660042B41F8042F9C45F9D8E4E703690A693F
S11356709B1A30B50CD192001430143184181144A3
S113568054F8045D51F8042D954203D005D3012349
S1135690184630BDA042F3D3FAE74FF0FF33F7E7E3
S11356A02DE9F0470D460746114628461446FFF7F4
S11356B0DDFF061E08D131463846FFF7C1FD012340
S11356C0C0E90436BDE8F087A4BF23462C4638461B
S11356D06168A6BF1D4600260126FFF7B1FD2B69B0
S11356E0C660266905F1140904F1140202EB860769
S11356F009EB830800F114054FF0000E52F804ABD7
S113570059F8044B1EFA8AF1A3B2C91A230CC3EB4D
S11357101A4303EB214389B24FEA234EC84541EAB9
S11357200343944645F8043BE8D8BC4504D355F8F4
S1135730043D83B10661C5E75CF8041B1EFA81F3DE
S11357401A1402EB11429BB243EA02434FEA224E7F
S113575045F8043BE9E7013EE9E72DE9F743012178
S113576099469046DDE90A65FFF76AFDC9F30A54D4
S11357700746C9F3130334BBB8F10002019327D0E1
S113578002A840F8082DFFF700FE0099F0B1019A35
S1135790C0F1200302FA03F30B43C2407B61019280
S11357A0019BBB61002B14BF022101213961C4B1EB
S11357B0A4F2334404443460C0F135002860384610
S11357C003B0BDE8F08343F48013D5E77961E7E7DC
S11357D001A8FFF7DAFD019B7B61012139612030CB
S11357E0E5E707EB8103A0F2324030601869FFF768
S11357F0ADFDC0EB4110E1E738B502FB01F42146F1
S113580000F056F8054618B122460021FEF7CFF9FC
S1135810284638BD38B50546002945D051F8043C22
S11358200C1F002BB8BFE41800F027FA1F4A1368B6
S1135830104633B9636014602846BDE8384000F070
S11358401DBAA3420CD921686218934204BF1A6896
S11358505B68636004BF521822600460ECE713467F
S11358605A680AB1A242FAD919685818A0420BD151
S113587020680144581882421960DDD110685268CA
S11358805A6001441960D7E702D90C232B60D3E78F
S1135890206821188A4204BF11685268626004BFFC
S11358A0091821605C60C7E738BD00BFB40200205E
S11358B070B5CD1C25F0030508350C2D38BF0C251B
S11358C0002D064601DBA94203D90C2333600020D6
S11358D070BD00F0D2F9214A1468214691B9204CD8
S11358E023681BB9304600F08DF920602946304604
S11358F000F088F9431C24D10C233360304600F0B7
S1135900BDF9E4E70B685B1B18D40B2B0FD90B60B4
S1135910CD50CC18304600F0B1F904F10B00231D32
S113592020F00700C31AD3D05A42E250D0E78C4289
S11359304B6816BF636013600C46EBE70C4649687E
S1135940CCE7C41C24F00304A04205D0211A30463D
S113595000F058F90130CFD02560DBE7B402002015
S1135960B80200202DE9F0478E689E4282460C461C
S11359709046994637D88A8912F4906F31D02568B9
S113598009696F1A6569022305EB450595FBF3F573
S113599009F101033B449D4238BF1D46530530D5F0
S11359A02946FFF785FF064650B90C23CAF8003094
S11359B0A38943F04003A3814FF0FF30BDE8F08793
S11359C03A462169FEF7E8F8A38923F4906343F08B
S11359D08003A381266165613E44ED1B2660A560BA
S11359E04E464E4500D94E4632464146206800F0A8
S11359F02BF9A3689B1BA36023681E442660002028
S1135A00DCE72A4600F03BF906460028E2D121698A
S1135A105046FFF7FFFEC8E72DE9F04F9DB08046E2
S1135A2003938B891D060C4616460FD50B696BB97B
S1135A304021FFF73DFF2060206128B90C23C8F8FE
S1135A4000304FF0FF30C7E0402363610023099327
S1135A5020238DF8293030238DF82A304FF0010BA4
S1135A6037463D4615F8013B0BB1252B3ED1B7EB2C
S1135A70060A0BD05346324621464046FFF772FFD2
S1135A80013000F0A480099B534409933B78002B18
S1135A9000F09D8000234FF0FF32CDE905230493ED
S1135AA007938DF853301A932F46052217F8011BDC
S1135AB04F48FFF775FB049BD0B9D90644BF202299
S1135AC08DF853201A0744BF2B228DF853202A78CF
S1135AD02A2A15D0079A2F4600200A25394611F89C
S1135AE0013B303B092B4DD9B8B10FE02F46B8E745
S1135AF03F4A801A0BFA00F0184304903D46D3E75E
S1135B00039A111D12680391002A01DB079204E035
S1135B10524243F00203079204933B782E2B0CD19C
S1135B207B782A2B33D1039B1A1D1B680392002B0D
S1135B30B8BF4FF0FF33023705932E4D3978032257
S1135B402846FFF72DFB38B14023401B03FA00F031
S1135B50049B034301370493397827488DF82810B0
S1135B6006227E1CFFF71CFB002838D0234B13BBF6
S1135B70039B073323F0070308330393099B4B4428
S1135B8009936DE705FB023201200F46A6E70023C7
S1135B900137059319460A25384610F8012B303A87
S1135BA0092A03D9002BC8D00591C6E705FB0121BA
S1135BB001230746F0E703AB00932246104B04A9E8
S1135BC04046FEF78DF8B0F1FF3F8146D6D1A38958
S1135BD05B063FF536AF09981DB0BDE8F08F03AB07
S1135BE000932246064B04A94046FEF735FBEAE73C
S1135BF0246200002A6200002E620000E13C0000E2
S1135C006559000038B5064C002305460846236054
S1135C1000F070F8431C02D1236803B12B6038BD37
S1135C20CC02002082B001B901A942B14BB1137872
S1135C300B601278101C18BF012002B07047104688
S1135C40FBE76FF00100F8E7884210B501EB0203AF
S1135C5007D8421E99420AD011F8014B02F8014FAD
S1135C60F8E78342F5D98118D21AD34200D110BD86
S1135C7013F8014D01F8014DF7E770477047F8B587
S1135C80074614460E4621B91146BDE8F840FFF711
S1135C900FBE22B9FFF7BEFD25462846F8BD00F029
S1135CA021F8A0420FD221463846FFF701FE0546EF
S1135CB00028F2D031462246FDF76EFF31463846C1
S1135CC0FFF7A8FDE9E73546E7E749B1FF2A85BFB5
S1135CD08A2303600A704FF0FF3098BF0120704799
S1135CE00846704751F8043C181F002BBCBF0B58E2
